:100016000000F112F1E8F2B3F372F426F4D1F571AF
:10002600F609F698F71FF79FF817F88CF8F3F95BBF
:10003600F9B8FA15FA67FAB9FB04FB4BFB90FBCF4C
:10004600FC0CFC44FC79FCACFCDCFD09FD34FD5CDD
:10005600FD82FDA6FDC8FDE8FE060014191919006B
:10006600141B18190014191E1E1D1B191B1918190B
:100076001B001419191900141B18190014191D2036
:100086001D19161B1D19002804040201040204028E
:100096000104020402010402010201010201040238
:1000A6000402010402040201040204020104020122
:0A00B600040201040401010101012C
:10028F000812387C7E3F3F7E7C38080A7FBFDFEF45
:04029F00F7FBFDFE6E
:10027700D28AD2AAC2A5758CFD758A09758901D261
:08028700A9C28DD28CD2AF2276
:0D025400E51B90008E9375F096A4FFAEF0B0
:10026100EF1FAA0670011E4A600BE4FDEDC39478EE
:0502710050EE0D80F7C6
:010276002265
:0402A4007F017E0058
:0B02A800EF1FAC0670011E4C70F62228
:03000B000201BD32
:1001BD00C0E0C083C082C0D075D000C004C005C0EF
:1001CD0007B2A5E50825E02416F582E43400F58391
:1001DD00E493FC740193FDECF58CAF058F8AD00789
:0D01ED00D005D004D0D0D082D083D0E03235
:030013000201FAED
:1001FA00C0E0C0D075D000C004C006C0077F647ECE
:10020A00001202A8E50970047F0180027F008F09AD
:10021A00E5097002C2A5D007D006D004D0D0D0E03C
:01022A0032A1
:0A02B300D28AD2AAD2AFE4F50922E4
:02022B00AD071D
:10022D00E4FBEDC4131313540124FF92B4ED25E048
:10023D00FDC2B61202A4D2B61202A40BBB08E3D2C1
:06024D00B51202A4C2B5C7
:010253002288
:10014C00E4F51CF51DF91202771202B3E5096054AF
:10015C00E51B90006093FF642860498F08E50860F8
:10016C0032120254C28C7F0A7E00120261D28CE4DD
:10017C00F9740A29F8E6F580741229F8E6FF1202E0
:10018C002B7F907E011202A8E4FF12022B09B90802
:10019C00E08007C28C120254D28C051BE51B70AC9C
:1001AC00051A80A8C28CC2A5E4F509F51AF51B80C6
:0101BC009BA7
:030000000200C03B
:0C00C000787FE4F6D8FD75811D02010771
:1000CC0002014CE493A3F8E493A34003F68001F2FD
:1000DC0008DFF48029E493A3F85407240CC8C33335
:1000EC00C4540F4420C8834004F456800146F6DF04
:1000FC00E4800B010204081020408090028FE47E03
:10010C00019360BCA3FF543F30E509541FFEE493F8
:10011C00A360010ECF54C025E060A840B8E493A3BF
:10012C00FAE493A3F8E493A3C8C582C8CAC583CAEA
:10013C00F0A3C8C582C8CAC583CADFE9DEE780BEA2
:0102A300005A
:00000001FF
